:100000000C946E000C9455030C948B000C948B0094
:100010000C948B000C948B000C94E3020C948B00DA
:100020000C948B000C9425030C948B000C945F03B0
:100030000C948B000C948B000C948B000C948B0014
:100040000C948B000C948B000C948B000C948B0004
:100050000C948B00F888F848F808B8A8E8A8A8F825
:10006000E02038E8A8B8F8A8B880A0F8F8A8F8E028
:10007000A0F8005000000000000000000000000098
:100080000000000000000078A078F8A870F88888C8
:10009000F88870F8A8A8F8A0A0F888B8F820F800A8
:1000A000F8009888F8F820D8F80808F860F8F88080
:1000B000F8708870F8A0E0F098F0F8A0D8C8A89878
:1000C00080F880F808F8F008F0F830F8D820D8C0A8
:1000D00038C098A8C88888700000000011241FBE8E
:1000E000CFE5D4E0DEBFCDBF10E0A0E6B0E0E6E8AB
:1000F000FAE002C005900D92AE37B107D9F711E0D2
:10010000AEE7B0E001C01D92AF31B107E1F70E9448
:1001100069030C9441050C94000010BC8DE489B96E
:1001200088E98AB986E880BD0895FC012191CF0154
:10013000222321F05D9BFECF2CB9F7CF0895CF93FA
:10014000DF93CDB7DEB765970FB6F894DEBF0FBE6D
:10015000CDBF20E04AE0322F2F5F882371F0642F5B
:100160000E94AE03E1E0F0E0EC0FFD1FE30FF11D94
:1001700037FDFA95905D9083EECF8FEF830F87FD6B
:100180000EC05D9BFECFE1E0F0E0EC0FFD1FE80F3D
:10019000F11D87FDFA9590819CB98150F0CF65964D
:1001A0000FB6F894DEBF0FBECDBFDF91CF9108959B
:1001B0005D9BFECF8CB908958F929F92AF92BF92B4
:1001C000CF92DF92EF92FF926B017C010E941F049D
:1001D0004B015C01862F0E949F008EE20E94D80096
:1001E000B40180E090E00E9450049B01AC01C70183
:1001F000B6010E94BA0320E034E244E759E40E94C9
:10020000DE040E942404862F0E949F008AE0FF9053
:10021000EF90DF90CF90BF90AF909F908F900C9415
:10022000D8000E949F008AE00C94D80011B887E0A3
:1002300080B984E886BF089594EA96BF06B607FEA3
:10024000FDCF91B1987F983021F0903111F081E08D
:10025000089583B984E886BF06B607FEFDCF81B155
:10026000887F883111F0803491F780E0089583B958
:1002700084E886BF06B607FEFDCF91B1987F81E086
:10028000983209F480E0089584EC86BF06B607FE34
:10029000FDCF83B1089584E886BF06B607FEFDCF83
:1002A00083B1089584E986BF06B604FCFDCF0895A6
:1002B00011B887E080B908950C941601CF93DF93AD
:1002C000EC0180ED90E00E941C0180E090E00E9433
:1002D00037012E81332727FD30952053310984E0E3
:1002E000220F331F8A95E1F78F81992787FD90951B
:1002F000C097822B932B0E9437012B81332727FD38
:1003000030952053310994E0220F331F9A95E1F77D
:100310008C81992787FD9095C097822B932B0E9403
:1003200037012881332727FD30952053310944E0D8
:10033000220F331F4A95E1F78981992787FD909510
:10034000C097822B932B0E9437018A85992787FDBE
:100350009095C0970E9437012C85332727FD309553
:100360002053310954E0220F331F5A95E1F78D8550
:10037000992787FD9095C097822B932B0E94370178
:100380002F85332727FD30952053310964E0220F54
:10039000331F6A95E1F78889992787FD9095C09763
:1003A000822B932B0E9437012A89332727FD309512
:1003B0002053310974E0220F331F7A95E1F78B89BE
:1003C000992787FD9095C097822B932B0E94370128
:1003D000DF91CF910C9452011F93CF93DF93EC01E7
:1003E00080ED90E00E941C0180E090E00E943701C7
:1003F00081ED90E00E941C010E944401982F92958B
:100400009F70905D9E838F70805D8F831AE3188745
:100410000E944401982F92959F70905D9B838F70EE
:10042000805D8C831D830E944401982F9295937068
:10043000905D98838F70805D89831A830E94440148
:100440008F70805D89871A870E944401982F92954A
:100450009F70905D9B878F70805D8C871D870E9449
:100460004401982F92959F70905D9E878F70805D5C
:100470008F87188B0E944B01982F92959F70905DEB
:10048000998B8F70805D8A8B80E28B8B1C8ADF91C9
:10049000CF911F910C94520183B7836083BF89B7BA
:1004A000816089BF12BE08958EB58B608EBD1DBC64
:1004B0001CBC80E29EE49BBD8ABD89B7806189BF78
:1004C000089583B7836083BF89B7816089BF12BEF7
:1004D0000895E42FF0E031E0340F421748F4DC01D6
:1004E000AE0FBF1F4C91E60FF71F4083432FF1CF94
:1004F000E60FF71F80E28083FB01E30FF11D1082FE
:10050000089520E030E0A9014F5F5F4FFA01E85EF7
:10051000FE4F9081F901E85EFE4F90834630510511
:1005200011F09A01F0CF80931E0108951F93CF938D
:10053000DF9310E0212F332727FD3095EC01C20F08
:10054000D31F4881220F331F220F331F442391F101
:10055000403269F4F901EE57FF4F1082F901ED576F
:10056000FF4F1082F901EC57FF4F10821DC040E091
:1005700050E0DA01A20FB31F6881772767FD7095FD
:1005800060537109FB01EE0FFF1FE60FF71FE40F29
:10059000F51FEC5AFF4FE491AE57BF4FEC934F5FFE
:1005A0005F4F4330510529F7F901EB57FF4F108298
:1005B0001F5FC0CFF901EE57FF4F8FEF8083DF91B0
:1005C000CF911F9108951F920F920FB60F92112491
:1005D0002F933F934F935F936F937F938F939F934B
:1005E000AF93BF93EF93FF93E0918000F0E0EE575D
:1005F000FF4F80818F3F59F41092800080917E00E0
:1006000090917F00019690937F0080937E00E0910F
:100610008000F0E0EE57FF4F80810E9481028091C0
:1006200080008F5F80938000FF91EF91BF91AF9129
:100630009F918F917F916F915F914F913F912F91FA
:100640000F900FBE0F901F9018951F920F920FB62C
:100650000F9211242F938F939F93EF93FF93809189
:100660008100873010F0109281002091810081E09C
:1006700090E001C0880F2A95EAF788BBE0918100DD
:10068000F0E0E85EFE4F808180958BBB8091810019
:100690008F5F80938100FF91EF919F918F912F91B8
:1006A0000F900FBE0F901F9018951F920F920FB6CC
:1006B0000F9211240F900FBE0F901F9018951F924C
:1006C0000F920FB60F9211240F900FBE0F901F9034
:1006D0001895CF93DF93CDB7DEB76E970FB6F8942A
:1006E000DEBF0FBECDBF8FEF8ABB87BB0E944C021F
:1006F0000E9454020E948D000E945C018A98929A86
:10070000789480E690E00E94960280917E0090911D
:100710007F000297D4F310927F0010927E00CE01EA
:1007200001960E94EC0128E040E0BE016A5E7F4F26
:10073000CE0101960E946902CE0146960E94960261
:1007400080917E0090917F0018161906CCF71092C8
:100750007F0010927E001BBA18BAE1CF991B79E096
:1007600004C0991F961708F0961B881F7A95C9F741
:10077000809508955058BB27AA270ED0E5C0D6D043
:1007800030F0DBD020F031F49F3F11F41EF4CBC0E9
:100790000EF4E095E7FBC1C0E92FE7D080F3BA176C
:1007A000620773078407950718F071F49EF5FFC080
:1007B0000EF4E0950B2EBA2FA02D0B01B90190017C
:1007C0000C01CA01A0011124FF27591B99F0593FC0
:1007D00050F4503E68F11A16F040A22F232F342F08
:1007E0004427585FF3CF469537952795A795F04056
:1007F0005395C9F77EF41F16BA0B620B730B840B6B
:10080000BAF09150A1F0FF0FBB1F661F771F881F22
:10081000C2F70EC0BA0F621F731F841F48F487957A
:1008200077956795B795F7959E3F08F0B3CF939569
:10083000880F08F09927EE0F97958795089504D0B3
:100840006894B111B5C0089598D088F09F5790F082
:10085000B92F9927B751A0F0D1F0660F771F881FE5
:10086000991F1AF0BA95C9F712C0B13081F09FD024
:10087000B1E008959CC0672F782F8827B85F39F0C2
:10088000B93FCCF3869577956795B395D9F73EF444
:1008900090958095709561957F4F8F4F9F4F0895EC
:1008A000E89409C097FB3EF490958095709561950A
:1008B0007F4F8F4F9F4F9923A9F0F92F96E9BB27C0
:1008C0009395F695879577956795B795F111F8CF3C
:1008D000FAF4BB0F11F460FF1BC06F5F7F4F8F4FA7
:1008E0009F4F16C0882311F096E911C0772321F09D
:1008F0009EE8872F762F05C0662371F096E8862F35
:1009000070E060E02AF09A95660F771F881FDAF78B
:10091000880F9695879597F9089597F99F6780E8CE
:1009200070E060E008959FEF80EC089500240A9441
:100930001616170618060906089500240A941216BA
:100940001306140605060895092E0394000C11F4ED
:10095000882352F0BB0F40F4BF2B11F460FF04C09A
:100960006F5F7F4F8F4F9F4F089557FD9058440FF3
:10097000551F59F05F3F71F04795880F97FB991FFE
:1009800061F09F3F79F087950895121613061406BB
:10099000551FF2CF4695F1DF08C016161706180648
:1009A000991FF1CF86957105610508940895E89423
:1009B000BB2766277727CB0197F908950BD0C4CFC3
:1009C000B5DF28F0BADF18F0952309F0A6CFABCF3A
:1009D0001124EECFCADFA0F3959FD1F3950F50E01D
:1009E000551F629FF001729FBB27F00DB11D639FE1
:1009F000AA27F00DB11DAA1F649F6627B00DA11D87
:100A0000661F829F2227B00DA11D621F739FB00D2C
:100A1000A11D621F839FA00D611D221F749F33279C
:100A2000A00D611D231F849F600D211D822F762F35
:100A30006A2F11249F5750408AF0E1F088234AF032
:100A4000EE0FFF1FBB1F661F771F881F915050407E
:100A5000A9F79E3F510570F060CFAACF5F3FECF33E
:100A6000983EDCF3869577956795B795F795E7956A
:100A70009F5FC1F7FE2B880F911D9695879597F97B
:060A80000895F894FFCF79
:100A860050524F4A4543544F5220434C4F434B20FC
:0E0A96004C4F4144494E47202E2E2E2000008A
:00000001FF
